:060000000A128A11122809
:10000800FE00030E83120313E6000408E7000A0843
:10001800E8007F08E9000A128A11972E0A128A114D
:10002800152883120313EA018313A0308400B33028
:100038000A128A11C62783010A128A11DD2E2308A3
:100048008039A8002308F9007907AE00A21B2E14F6
:100058002E0803193C282E0A031D3A280030A30055
:100068000030A2000030A1000030A000A2174428F0
:100078000030A3000030A2000030A1000030A00032
:1000880027088039FF007F08A8062708F9007907A4
:10009800A900A61B2914290803195F28290A031D8A
:1000A8005D280030A7000030A6000030A500003011
:1000B800A400A61767280030A7000030A60000306B
:1000C800A5000030A4002908031D2E08031D75286B
:1000D8000030A3000030A2000030A1000030A000D2
:1000E80008002008F00026080A128A1164270A125C
:1000F8008A117108B4007008B3003308F900FA01D6
:10010800FB01FC017C08AD007B08AC007A08AB0061
:100118007908AA003408F900FA01FB01FC017C08FF
:10012800B2007B08B1007A08B0007908AF00210856
:10013800F00025080A128A1164270A128A11710828
:10014800B4007008B3003308F900FA01FB01FC01A0
:100158007908AA077A0803110318013E031DAB07A3
:100168007B0803110318013E031DAC077C0803112B
:100178000318013E031DAD073408F900FA01FB011D
:10018800FC017908AF077A0803110318013E031D23
:10019800B0077B0803110318013E031DB1077C0853
:1001A80003110318013E031DB2072208F0002408BA
:1001B8000A128A1164270A128A117108B400700899
:1001C800B3003308F900FA01FB01FC017908AA071A
:1001D8007A0803110318013E031DAB077B080311BE
:1001E8000318013E031DAC077C0803110318013EE8
:1001F800031DAD073408F900FA01FB01FC01790879
:10020800AF077A0803110318013E031DB0077B08E6
:1002180003110318013E031DB1077C0803110318DD
:10022800013E031DB2070830F9000310AA0DAB0DFB
:10023800AC0DAD0DF90B19292108F00024080A129C
:100248008A1164270A128A117108B4007008B30071
:100258003308F9003408FA00FB01FC017908AA0701
:100268007A0803110318013E031DAB077B0803112D
:100278000318013E031DAC077C0803110318013E57
:10028800031DAD072008F00025080A128A1164270B
:100298000A128A117108B4007008B3003308F90013
:1002A8003408FA00FB01FC017908AA077A0803114F
:1002B8000318013E031DAB077B0803110318013E19
:1002C800031DAC077C0803110318013E031DAD078D
:1002D8000830F9000310AA0DAB0DAC0DAD0DF90BEC
:1002E8006E292008F00024080A128A1164270A12CD
:1002F8008A117108B4007008B3003308F900340893
:10030800FA00FB01FC017908AA077A08031103180F
:10031800013E031DAB077B0803110318013E031DB3
:10032800AC077C0803110318013E031DAD07210823
:10033800F00026080A128A1164270A128A11710825
:10034800B4007008B3003308F9003408FA00FB0160
:10035800FC017908AF077A0803110318013E031D51
:10036800B0077B0803110318013E031DB1077C0881
:1003780003110318013E031DB2072208F0002508E7
:100388000A128A1164270A128A117108B4007008C7
:10039800B3003308F9003408FA00FB01FC017908BE
:1003A800AF077A0803110318013E031DB0077B0845
:1003B80003110318013E031DB1077C08031103183C
:1003C800013E031DB2072208F00026080A128A110E
:1003D80064270A128A117108B4007008B300330840
:1003E800F9003408FA00FB01FC0108300310F90D8C
:1003F800FA0DFB0DFC0DFF3E031DFA297908AF0726
:100408007A0803110318013E031DB0077B08031186
:100418000318013E031DB1077C0803110318013EB0
:10042800031DB2072D08F900FA01FB01FC01790848
:10043800AF077A0803110318013E031DB0077B08B4
:1004480003110318013E031DB1077C0803110318AB
:10045800013E031DB2070830F9000310AA0DAB0DC9
:10046800AC0DAD0DF90B312A2E082907F900FA0158
:10047800FA0D7908823EB3007A080318013EFF3E60
:10048800B400B11B622A0130F9000310AF0DB00DA2
:10049800B10DB20DF90B492AAD1B2F140130F9002B
:1004A8000310AA0DAB0DAC0DAD0DF90B542AFF309E
:1004B800B3070318B40AFF30B407452AA901AD1FD2
:1004C8007B2AFF302A05F900FF302B05FA00FF30A0
:1004D8002C05FB007F302D05FC007C087B047A048A
:1004E800790403192F18792A7B2AA901A90A29084E
:1004F8000319AD2A0130AF07003003180130B007E7
:10050800003003180130B107003003180130B2077A
:10051800321CAD2A2F08F9003008FA003108FB0018
:100528003208FC000130FD007C0DFC0CFB0CFA0CC1
:10053800F90CFD0B982A7C08B2007B08B1007A08F8
:10054800B0007908AF000130B3070318B40A0030CF
:10055800B4073408803AFF0080307F02031DB62AB2
:10056800FF303302031CC32A7F3083120313B20007
:100578008030B1000030B0000030AF00EF2A8312A5
:1005880003133408803AFF0080307F02031DCE2A0F
:10059800013033020318DC2A003083120313B2003F
:1005A8000030B1000030B0000030AF00A801EF2AE1
:1005B800831203133308AE00FF30AF05FF30B005D8
:1005C8007F30B1050030B2052E18B1172E08F9009A
:1005D8000310790CB2002808FF007F08B204320823
:1005E800A3003108A2003008A1002F08A0000800CD
:1005F8003C088039C6003C08BD003D07CD00BB1B48
:100608004D144D080319162B4D0A031D132B0030EA
:10061800BC000030BB000030BA000030B900BB1786
:10062800BC011E2B0030BC000030BB000030BA00FB
:100638000030B90038088039FF007F08C60638083E
:10064800BD003D07CE00B71B4E144E0803193A2BC8
:100658004E0A031D372B0030B8000030B7000030B9
:10066800B6000030B500B717B801422B0030B8000B
:100678000030B7000030B6000030B5003808370445
:1006880036043504031D612B0030BC000030BB006C
:100698000030BA000030B9008030BB047F30BC04A1
:1006A8004608FF007F08BC043C08B8003B08B700B8
:1006B8003A08B6003908B50008004D08031D6D2B2F
:1006C8000030B8000030B7000030B6000030B50088
:1006D80008004D08BD00BE013E08C0004E083D029E
:1006E800BF00031CC0033F087F3EC7004008031833
:1006F800013E003EC8003C08C5003B08C4003A085B
:10070800C3003908C2000030BC000030BB00003014
:10071800BA000030B9000030CC000030CB00003007
:10072800CA000030C900CE011A304E020318E02B6F
:100738004E080319BC2B0130BD000310C20DC30DB8
:10074800C40DC50DBD0BA12B0130BD000310B90DA3
:10075800BA0DBB0DBC0DBD0BAA2BCC1B3914013037
:10076800BD000310C90DCA0DCB0DCC0DBD0BB52BAB
:1007780038084502031DCA2B37084402031DCA2B3B
:1007880036084302031DCA2B35084202031CDB2B23
:100798004C173508C2023608031C360FC302370847
:1007A800031C370FC4023808031C380FC502013078
:1007B800FF007F08CE07982B4508440443044204F1
:1007C800031D4914BB1B032C0130BD000310B90DD8
:1007D800BA0DBB0DBC0DBD0BEA2BCC1B3914013077
:1007E800BD000310C90DCA0DCB0DCC0DBD0BF52BEB
:1007F800FF30C7070318C80AFF30C807E62BCE0129
:10080800CC1F1C2CFF304905BD00FF304A05BE0037
:10081800FF304B05BF007F304C05C00040083F0447
:100828003E043D04031939181A2C1C2CCE01CE0A9B
:100838004E0803194E2C0130B90700300318013057
:10084800BA07003003180130BB0700300318013025
:10085800BC073C1C4E2C3908BD003A08BE003B08BA
:10086800BF003C08C0000130C100400DC00CBF0CE7
:10087800BE0CBD0CC10B392C4008BC003F08BB00A6
:100888003E08BA003D08B9000130C7070318C80A76
:100898000030C8074808803AFF0080307F02031DF7
:1008A800572CFF304702031C672CFF3083120313B9
:1008B800C7000030C8000030BC000030BB0000306A
:1008C800BA000030B900831203134808803AFF00C9
:1008D80080307F02031D722C013047020318812CDF
:1008E80083120313C701C8010030BC000030BB00ED
:1008F8000030BA000030B900C6018312031347085C
:10090800CD004D1C892CBB178D2C7F30FF007F0834
:10091800BB054D08BD0003103D0CBC00542BE30083
:1009280034306306031D9C2C4130E200F030BF2CAC
:1009380035306306031DA22C4230AD2C36306306D9
:10094800031DA82C4230BD2C37306306031DB02C84
:100958004330E2003430BF2C38306306031DB82C16
:100968004330E2008730BF2C39306306031DC52CA5
:100978004330E200B430E1000030E0000030DF0036
:10098800CD2C0130F1008030F2000A128A1187273D
:1009980008006208A7006108A6006008A5005F08B3
:1009A800A4003F30A3008030A2000030A100003036
:1009B800A0000A128A1123200A128A112308BC00F7
:1009C8002208BB002108BA002008B9003F30B8004F
:1009D800E630B7006630B6006630B5000A128A11F4
:1009E800FC220A128A113808D2003708D1003608CA
:1009F800D0003508CF000A128A113B250A128A1145
:100A08005008DC004F08DB00DD01DE015C085E02F7
:100A1800031D102D5B085D020318332D08150330E4
:100A280083120313DA009730D900D90B192DDA0B8A
:100A3800192D831203130811033083120313DA00EC
:100A48009730D900D90B262DDA0B262D01308312C9
:100A58000313DD070318DE0A0030DE070A2D3430E1
:100A6800F1008030F2000A128A118727080003106B
:100A7800510D520DD8005808031D4B2D0030D200DF
:100A88000030D1000030D0000030CF0008004F08FF
:100A9800D3005008D4005108D5005208D6001F30A2
:100AA8000310D60CD50CD40CD30CFF3E031D542DCB
:100AB8005308D700D117FF30CF05FF30D005FF30DE
:100AC800D1050030D2059630D802D81F802D58089D
:100AD800803A973E031C422D01300310D20CD10CF2
:100AE800D00CCF0CFF3E031D712D0130FF007F0895
:100AF800D8070319932D702D203058020318422D62
:100B080058080319932D0130D3000310CF0DD00DD1
:100B1800D10DD20DD30B892D0130D802842D570861
:100B280003190800CF09D009D109D209CF0A03193E
:100B3800D00A0319D10A0319D20A0800B5003503EF
:100B4800031DC22D83120815063083160313B40043
:100B58002F30B300B30BAE2DB40BAE2DB32D8312D3
:100B680003130811063083160313B4002F30B300A3
:100B7800B30BBC2DB40BBC2DC12D080002303506BB
:100B8800031DE22D83120815043083160313B400E5
:100B9800E330B300B30BCE2DB40BCE2DD32D83127F
:100BA80003130811043083160313B400E330B300B1
:100BB800B30BDC2DB40BDC2DE12D0800033035061A
:100BC800031D080083120815033083160313B400AD
:100BD8009730B300B30BEE2DB40BEE2D8312031335
:100BE8000811033083160313B4009730B300B30B16
:100BF800FB2DB40BFB2D0800FF1B0A2E83137F1857
:100C080083170008840A0319FF0A080006308A00BF
:100C18000408840A8207003449346E347634613417
:100C28006C3469346434203463346F346D346D3417
:100C380061346E3464340D340A34003453347934F6
:100C48007334743465346D34203469347334203427
:100C5800723465346134643479340D340A340034C0
:100C680052346534633465346934763465346434B5
:100C78003A342034253463340D340A340034433490
:100C88006F346D3470346C34653474346534643462
:100C98000D340A340034F7007130F5000130F007E4
:100CA800FF30700784000A128A110A260A128A1174
:100CB800F60076080319922E253076060319772E4A
:100CC8006D2E750884000008F6000230FF007F08CA
:100CD800F507770884007608831380000130FF0049
:100CE8007F08F707522E0130F007FF3070078400A5
:100CF8000A128A110A260A128A11F600F300F40170
:100D08007408003A0319892E6D2E7308003A0319E6
:100D1800922E633A0319652E6D2E522E77088400A1
:100D28008313800108008B1CAB2E683083120313D9
:100D3800E500E330E400E40B9F2EE50B9F2EA42E84
:100D480083120313061C8814061CA82E8B108C1EF5
:100D5800D12E981CB12E181218161A08EA00253040
:100D6800F0006A08E400E5016408F1006508F20093
:100D7800A2300A128A114F260A128A11A230F100F3
:100D88000030F2000A128A1187270A128A116A08AB
:100D98000A128A1110270A128A1183126908FF00A1
:100DA80068088A0067088400660E8300FE0E7E0EBF
:100DB800090083160810881008110A128A11CE2714
:100DC8000A128A110A128A11A8270A128A1168308F
:100DD80083160313B700E330B600B60BF12EB70B3A
:100DE800F12EF62E133083160313B4008030B500AD
:100DF8000A128A113B270A128A118810081408114E
:100E0800831603132008031D042F21080A128A11D0
:100E1800A2250A128A11042F30306A06031D172FE3
:100E280001308806080031306A06031D202F83161A
:100E3800A0010130A100080032306A06031D292FE5
:100E48008316A0010230A100080033306A06031D92
:100E5800322F8316A0010330A10008008316A001D9
:100E6800A00A83126A080A128A1193240800350816
:100E78008312FF0083163408840083120A128A1131
:100E880000260A128A11003A031908008316350849
:100E98008312FF0083163408840083120A128A1111
:100EA80000260A128A110A128A11BC270A128A110C
:100EB80001308316B4070318B50A0030B5073B2F75
:100EC800F800F401F5017008F200F3017208F60069
:100ED8007308F700781C762F7608F4070318F50ACC
:100EE8007708F50701300310F60DF70DFF3E031DD7
:100EF800772F0310F80C7808031D6E2F7508F10082
:100F08007408F00008007208FF00710884000A12D3
:100F18008A1100260A128A11003A03190800720879
:100F2800FF00710884000A128A1100260A128A1129
:100F38000A128A11D4270A128A110130F1070318FC
:100F4800F20A0030F207872F0717871767309900D2
:100F5800181518128312981783168C160B178B17EF
:100F6800981683121816831618138312181308007C
:100F78008316B30083120C1EBE2F83163308831208
:100F88009900080064008001840A040603190034EB
:100F98000406C72F061401138B100B168B170800B5
:0C0FA800F0000C1ED52F70089900080006
:08400000FF3FFF3FFF3FFF3FC0
:02400E00FA3F77
:00000001FF
