:060000000A128A11122809
:10000800FE00030E83120313AF000408B0000A08B1
:10001800B1007F08B2000A128A11CF290A128A1188
:1000280015280A128A114A240A128A11DA000A12B9
:100038008A114B240A128A11DB008313473084008B
:100048005A300A128A112A2483010A128A11F52BBE
:10005800BD01B61F3C28B309B409B509B609B30AEE
:100068000319B40A0319B50A0319B60ABD01BD0A72
:10007800BA1F4D28B709B809B909BA09B70A031947
:10008800B80A0319B90A0319BA0A0130FF007F0830
:10009800BD060030C1000030C0000030BF00003095
:1000A800BE0036083504340433040319A228BC0101
:1000B800BC0AB61B6D280130BB000310B30DB40D8C
:1000C800B50DB60DBB0B61280130FF007F08BC07DA
:1000D8005D280130BB000310BE0DBF0DC00DC10D62
:1000E800BB0B6F2836083A02031D842835083902ED
:1000F800031D842834083802031D84283308370276
:10010800031C95283308B7023408031C340FB802BF
:100118003508031C350FB9023608031C360FBA021E
:100128003E1401300310B60CB50CB40CB30CFF3EF2
:10013800031D96280130BC02031D6D283D080319D4
:10014800B028BE09BF09C009C109BE0A0319BF0A00
:100158000319C00A0319C10A4108B6004008B500CE
:100168003F08B4003E08B3000800A101F31FC928E6
:10017800F009F109F209F309F00A0319F10A031960
:10018800F20A0319F30AA101A10AF71FDA28F409F0
:10019800F509F609F709F40A0319F50A0319F60A25
:1001A8000319F70A0130FF007F08A1060030A500F7
:1001B8000030A4000030A3000030A20073087204CD
:1001C8007104700403192F29A001A00AF31BFA284F
:1001D8000130F8000310F00DF10DF20DF30DF80BDE
:1001E800EE280130FF007F08A007EA280130F80058
:1001F8000310A20DA30DA40DA50DF80BFC28730880
:100208007702031D112972087602031D112971084E
:100218007502031D112970087402031C2229700835
:10022800F4027108031C710FF5027208031C720FA7
:10023800F6027308031C730FF7022214013003102F
:10024800F30CF20CF10CF00CFF3E031D23290130D6
:10025800A002031DFA28210803193D29A209A309B0
:10026800A409A509A20A0319A30A0319A40A0319D0
:10027800A50A2508F3002408F2002308F100220843
:10028800F000080027304302113003194202031816
:10029800542905304302DC300319420203185C2953
:1002A8000130B4008030B5000A128A11B323080067
:1002B8004308C6004208C500C50EC60EF030C60584
:1002C80045080F39C604F030C5054508B30046088F
:1002D800B400B501B6010030BA00F430B9002430DA
:1002E800B8000030B7000A128A112C200A128A11AD
:1002F80034088316A100831233088316A00021084E
:100308008312C600831620088312C5000310C60C8A
:10031800C50C0310C60CC50C4508FF3E8316920099
:100328008312921412144408031D9E298316A201F5
:10033800A301A6294403031DA62983162108A300A7
:100348002008A2008316220801398312C500C50EB1
:1003580017084506EF394506970083162208023923
:100368008312C500C50EC50D17084506DF394506B9
:100378009700831623088312C60083162208831267
:10038800C5000310C60CC50C0310C60CC50C4508E7
:100398009500121508008B1CEE2968308312031390
:1003A800AE00E330AD00AD0BD729AE0BD729DC2961
:1003B800831203130618EB298810DC30A6000530D9
:1003C800A700A8010A128A1158220A128A11061CCB
:1003D800EB298B108C1E4D2A981CF429181218161C
:1003E8001A08C7001B30F0004708AD00AE012D0801
:1003F800F1002E08F20049300A128A116B230A1202
:100408008A114930F1000030F2000A128A11D4230F
:100418000A128A1130304706031D152A0130880652
:100428004D2A31304706031D272AA030DA000F3045
:10043800DB002C30F1008030F2000A128A11D4233C
:100448000A128A114D2A32304706031D392A7030A4
:10045800DA001730DB003C30F1008030F2000A127D
:100468008A11D4230A128A114D2A33304706031DF4
:100478004B2A4030DA001F30DB004C30F10080306E
:10048800F2000A128A11D4230A128A114D2A013065
:10049800C8003208FF0031088A00300884002F0E97
:1004A8008300FE0E7E0E0900273027021130031943
:1004B80026020318662A05302702DC3003192602B3
:1004C80003186E2A0130F1008030F2000A128A11F6
:1004D800D42308002708FA002608F900F90EFA0EB6
:1004E800F030FA0579080F39FA04F030F90579087F
:1004F800F0007A08F100F201F3010030F700F4305F
:10050800F6002430F5000030F4000A128A11B920F0
:100518000A128A117108AA007008A9002A08FA00AC
:100528002908F9000310FA0CF90C0310FA0CF90C5D
:100538007908FF3E83169200831292141214280839
:10054800031DA92AAB01AC01B02A2803031DB02A58
:100558002A08AC002908AB002B080139F900F90E6C
:1005680017087906EF39790697002B080239F90040
:10057800F90EF90D17087906DF39790697002C0866
:10058800FA002B08F9000310FA0CF90C0310FA0C06
:0A059800F90C79089500121508000F
:10060000FF1B0A2B83137F1883170008840A031922
:10061000FF0A080003308A000408840A82070034B5
:100620004534523452344F3452343A3420346934DD
:100630006E34763461346C34693464342034663416
:10064000723465347134753465346E34633479349E
:10065000213400345234653463346534693476347B
:10066000653464343A3420345B34253463345D3487
:100670000D340A34003453347034653465346434D2
:10068000203431342034723475346E346E3469342D
:100690006E346734003453347034653465346434F4
:1006A000203432342034723475346E346E3469340C
:1006B0006E346734003453347034653465346434D4
:1006C000203433342034723475346E346E346934EB
:1006D0006E3467340034F7007130F5000130F007F4
:1006E000FF30700784000A128A110A230A128A1145
:1006F000F60076080319AE2B253076060319932BE6
:10070000892B750884000008F6000230FF007F087E
:10071000F507770884007608831380000130FF0016
:100720007F08F7076E2B0130F007FF307007840059
:100730000A128A110A230A128A11F600F300F40140
:100740007408003A0319A52B892B7308003A031982
:10075000AE2B633A0319812B892B6E2B770884000B
:100760008313800108003508FF00340884000A1252
:100770008A1100230A128A11003A03190800350869
:10078000FF00340884000A128A1100230A128A1119
:100790000A128A1139240A128A110130B407031887
:1007A000B50A0030B507B32B7208FF00710884004A
:1007B0000A128A1100230A128A11003A031908004A
:1007C0007208FF00710884000A128A1100230A12BD
:1007D0008A110A128A113F240A128A110130F10784
:1007E0000318F20A0030F207D42B0A128A113224BD
:1007F0000A128A110A128A1145240A128A110A124F
:100800008A1115240A128A11881408144808031D35
:10081000062C5B08C3005A08C200C401C40A0A12AD
:100820008A1146210A128A11062C83160717871788
:1008300067309900181518128312981783168C16B2
:100840000B178B179816831218168316181383121A
:100850001813080064008001840A04060319003498
:1008600004062B2C8316061401138B100B168B1702
:100870000800B3000C1E3A2C330899000800F00061
:100880000C1E402C70089900080007118312971560
:0808900017150800D0340734ED
:08400000FF3FFF3FFF3FFF3FC0
:02400E007A3FF7
:00000001FF
